{
  "contractName": "InsuranceClaim",
  "abi": [
    {
      "anonymous": false,
      "inputs": [
        {
          "indexed": true,
          "internalType": "string",
          "name": "_insuranceId",
          "type": "string"
        }
      ],
      "name": "_getClaim",
      "type": "event"
    },
    {
      "anonymous": false,
      "inputs": [
        {
          "indexed": true,
          "internalType": "string",
          "name": "_insuranceId",
          "type": "string"
        }
      ],
      "name": "_setClaim",
      "type": "event"
    },
    {
      "inputs": [
        {
          "components": [
            {
              "internalType": "string",
              "name": "insuranceId",
              "type": "string"
            },
            {
              "internalType": "string",
              "name": "payment",
              "type": "string"
            },
            {
              "components": [
                {
                  "internalType": "string",
                  "name": "stage_name",
                  "type": "string"
                },
                {
                  "internalType": "bool",
                  "name": "passed",
                  "type": "bool"
                }
              ],
              "internalType": "struct InsuranceClaim.status",
              "name": "currStatus",
              "type": "tuple"
            },
            {
              "components": [
                {
                  "internalType": "string",
                  "name": "cropType",
                  "type": "string"
                },
                {
                  "internalType": "string",
                  "name": "cropName",
                  "type": "string"
                },
                {
                  "internalType": "string",
                  "name": "irrigationMethod",
                  "type": "string"
                },
                {
                  "internalType": "string",
                  "name": "season",
                  "type": "string"
                }
              ],
              "internalType": "struct InsuranceClaim.cropDetails",
              "name": "currCrop",
              "type": "tuple"
            },
            {
              "internalType": "string[]",
              "name": "imageURL",
              "type": "string[]"
            },
            {
              "internalType": "bool",
              "name": "isActive",
              "type": "bool"
            },
            {
              "internalType": "string",
              "name": "lossPercent",
              "type": "string"
            },
            {
              "internalType": "string",
              "name": "lossType",
              "type": "string"
            },
            {
              "internalType": "string",
              "name": "dateOfLoss",
              "type": "string"
            },
            {
              "internalType": "string",
              "name": "createdOn",
              "type": "string"
            },
            {
              "internalType": "string",
              "name": "updatedOn",
              "type": "string"
            }
          ],
          "internalType": "struct InsuranceClaim.individualClaim",
          "name": "obj",
          "type": "tuple"
        }
      ],
      "name": "setClaim",
      "outputs": [],
      "stateMutability": "nonpayable",
      "type": "function"
    },
    {
      "inputs": [
        {
          "internalType": "string",
          "name": "_insuranceId",
          "type": "string"
        }
      ],
      "name": "getClaim",
      "outputs": [
        {
          "components": [
            {
              "internalType": "string",
              "name": "insuranceId",
              "type": "string"
            },
            {
              "internalType": "string",
              "name": "payment",
              "type": "string"
            },
            {
              "components": [
                {
                  "internalType": "string",
                  "name": "stage_name",
                  "type": "string"
                },
                {
                  "internalType": "bool",
                  "name": "passed",
                  "type": "bool"
                }
              ],
              "internalType": "struct InsuranceClaim.status",
              "name": "currStatus",
              "type": "tuple"
            },
            {
              "components": [
                {
                  "internalType": "string",
                  "name": "cropType",
                  "type": "string"
                },
                {
                  "internalType": "string",
                  "name": "cropName",
                  "type": "string"
                },
                {
                  "internalType": "string",
                  "name": "irrigationMethod",
                  "type": "string"
                },
                {
                  "internalType": "string",
                  "name": "season",
                  "type": "string"
                }
              ],
              "internalType": "struct InsuranceClaim.cropDetails",
              "name": "currCrop",
              "type": "tuple"
            },
            {
              "internalType": "string[]",
              "name": "imageURL",
              "type": "string[]"
            },
            {
              "internalType": "bool",
              "name": "isActive",
              "type": "bool"
            },
            {
              "internalType": "string",
              "name": "lossPercent",
              "type": "string"
            },
            {
              "internalType": "string",
              "name": "lossType",
              "type": "string"
            },
            {
              "internalType": "string",
              "name": "dateOfLoss",
              "type": "string"
            },
            {
              "internalType": "string",
              "name": "createdOn",
              "type": "string"
            },
            {
              "internalType": "string",
              "name": "updatedOn",
              "type": "string"
            }
          ],
          "internalType": "struct InsuranceClaim.individualClaim",
          "name": "",
          "type": "tuple"
        }
      ],
      "stateMutability": "nonpayable",
      "type": "function"
    },
    {
      "inputs": [],
      "name": "getTotalClaim",
      "outputs": [
        {
          "components": [
            {
              "internalType": "string",
              "name": "insuranceId",
              "type": "string"
            },
            {
              "internalType": "string",
              "name": "payment",
              "type": "string"
            },
            {
              "components": [
                {
                  "internalType": "string",
                  "name": "stage_name",
                  "type": "string"
                },
                {
                  "internalType": "bool",
                  "name": "passed",
                  "type": "bool"
                }
              ],
              "internalType": "struct InsuranceClaim.status",
              "name": "currStatus",
              "type": "tuple"
            },
            {
              "components": [
                {
                  "internalType": "string",
                  "name": "cropType",
                  "type": "string"
                },
                {
                  "internalType": "string",
                  "name": "cropName",
                  "type": "string"
                },
                {
                  "internalType": "string",
                  "name": "irrigationMethod",
                  "type": "string"
                },
                {
                  "internalType": "string",
                  "name": "season",
                  "type": "string"
                }
              ],
              "internalType": "struct InsuranceClaim.cropDetails",
              "name": "currCrop",
              "type": "tuple"
            },
            {
              "internalType": "string[]",
              "name": "imageURL",
              "type": "string[]"
            },
            {
              "internalType": "bool",
              "name": "isActive",
              "type": "bool"
            },
            {
              "internalType": "string",
              "name": "lossPercent",
              "type": "string"
            },
            {
              "internalType": "string",
              "name": "lossType",
              "type": "string"
            },
            {
              "internalType": "string",
              "name": "dateOfLoss",
              "type": "string"
            },
            {
              "internalType": "string",
              "name": "createdOn",
              "type": "string"
            },
            {
              "internalType": "string",
              "name": "updatedOn",
              "type": "string"
            }
          ],
          "internalType": "struct InsuranceClaim.individualClaim[]",
          "name": "",
          "type": "tuple[]"
        }
      ],
      "stateMutability": "view",
      "type": "function",
      "constant": true
    },
    {
      "inputs": [
        {
          "internalType": "string",
          "name": "insuranceId",
          "type": "string"
        },
        {
          "internalType": "string",
          "name": "payment",
          "type": "string"
        }
      ],
      "name": "updatePayment",
      "outputs": [],
      "stateMutability": "nonpayable",
      "type": "function"
    },
    {
      "inputs": [
        {
          "internalType": "string",
          "name": "insuranceId",
          "type": "string"
        },
        {
          "components": [
            {
              "internalType": "string",
              "name": "stage_name",
              "type": "string"
            },
            {
              "internalType": "bool",
              "name": "passed",
              "type": "bool"
            }
          ],
          "internalType": "struct InsuranceClaim.status",
          "name": "currStatus",
          "type": "tuple"
        }
      ],
      "name": "updateStatus",
      "outputs": [],
      "stateMutability": "nonpayable",
      "type": "function"
    },
    {
      "inputs": [
        {
          "internalType": "string",
          "name": "insuranceId",
          "type": "string"
        },
        {
          "components": [
            {
              "internalType": "string",
              "name": "cropType",
              "type": "string"
            },
            {
              "internalType": "string",
              "name": "cropName",
              "type": "string"
            },
            {
              "internalType": "string",
              "name": "irrigationMethod",
              "type": "string"
            },
            {
              "internalType": "string",
              "name": "season",
              "type": "string"
            }
          ],
          "internalType": "struct InsuranceClaim.cropDetails",
          "name": "currCrop",
          "type": "tuple"
        }
      ],
      "name": "updateCurrCrop",
      "outputs": [],
      "stateMutability": "nonpayable",
      "type": "function"
    },
    {
      "inputs": [
        {
          "internalType": "string",
          "name": "insuranceId",
          "type": "string"
        },
        {
          "internalType": "string[]",
          "name": "imageURL",
          "type": "string[]"
        }
      ],
      "name": "updateImageURL",
      "outputs": [],
      "stateMutability": "nonpayable",
      "type": "function"
    },
    {
      "inputs": [
        {
          "internalType": "string",
          "name": "insuranceId",
          "type": "string"
        },
        {
          "internalType": "bool",
          "name": "isActive",
          "type": "bool"
        }
      ],
      "name": "updateisActive",
      "outputs": [],
      "stateMutability": "nonpayable",
      "type": "function"
    },
    {
      "inputs": [
        {
          "internalType": "string",
          "name": "insuranceId",
          "type": "string"
        },
        {
          "internalType": "string",
          "name": "lossPercent",
          "type": "string"
        }
      ],
      "name": "updatelossPercent",
      "outputs": [],
      "stateMutability": "nonpayable",
      "type": "function"
    },
    {
      "inputs": [
        {
          "internalType": "string",
          "name": "insuranceId",
          "type": "string"
        },
        {
          "internalType": "string",
          "name": "lossType",
          "type": "string"
        }
      ],
      "name": "updatelossType",
      "outputs": [],
      "stateMutability": "nonpayable",
      "type": "function"
    },
    {
      "inputs": [
        {
          "internalType": "string",
          "name": "insuranceId",
          "type": "string"
        },
        {
          "internalType": "string",
          "name": "dateOfLoss",
          "type": "string"
        }
      ],
      "name": "updatedateOfLoss",
      "outputs": [],
      "stateMutability": "nonpayable",
      "type": "function"
    },
    {
      "inputs": [
        {
          "internalType": "string",
          "name": "insuranceId",
          "type": "string"
        },
        {
          "internalType": "string",
          "name": "createdOn",
          "type": "string"
        }
      ],
      "name": "updatecreatedOn",
      "outputs": [],
      "stateMutability": "nonpayable",
      "type": "function"
    },
    {
      "inputs": [
        {
          "internalType": "string",
          "name": "insuranceId",
          "type": "string"
        },
        {
          "internalType": "string",
          "name": "updatedOn",
          "type": "string"
        }
      ],
      "name": "updateupdatedOn",
      "outputs": [],
      "stateMutability": "nonpayable",
      "type": "function"
    }
  ],
  "bytecode": "0x608060405234801561001057600080fd5b50613c64806100206000396000f3fe608060405234801561001057600080fd5b50600436106100cf5760003560e01c80632bb815461161008c578063953b14fa11610066578063953b14fa146101e6578063a9904f4914610202578063d2551ac41461021e578063d29e34ca1461023a576100cf565b80632bb815461461017e5780635bb1cfa0146101ae57806374a805d5146101ca576100cf565b8063067e9626146100d457806308b19fc8146100f057806312f0bbe81461010c5780631fc09b1b1461012a578063262b396e146101465780632766ac8714610162575b600080fd5b6100ee60048036038101906100e99190612c6a565b610256565b005b61010a60048036038101906101059190612ce2565b61048e565b005b61011461062a565b604051610121919061315b565b60405180910390f35b610144600480360381019061013f9190612ce2565b610e99565b005b610160600480360381019061015b919061351f565b611035565b005b61017c60048036038101906101779190613568565b611450565b005b610198600480360381019061019391906135e0565b6115fa565b6040516101a59190613757565b60405180910390f35b6101c860048036038101906101c39190612ce2565b611e84565b005b6101e460048036038101906101df9190612ce2565b612020565b005b61020060048036038101906101fb9190613779565b6121bc565b005b61021c60048036038101906102179190612ce2565b6123b0565b005b610238600480360381019061023391906137f1565b61254c565b005b610254600480360381019061024f9190612ce2565b6126fc565b005b806000836040516102679190613889565b9081526020016040518091039020600401600082015181600001908161028d9190613ab6565b5060208201518160010190816102a39190613ab6565b5060408201518160020190816102b99190613ab6565b5060608201518160030190816102cf9190613ab6565b509050506000600180549050905060005b81811015610488576000600182815481106102fe576102fd613b88565b5b90600052602060002090600f0201600001805461031a906138cf565b80601f0160208091040260200160405190810160405280929190818152602001828054610346906138cf565b80156103935780601f1061036857610100808354040283529160200191610393565b820191906000526020600020905b81548152906001019060200180831161037657829003601f168201915b50505050509050846040516020016103ab9190613889565b60405160208183030381529060405280519060200120816040516020016103d29190613889565b604051602081830303815290604052805190602001200361047457836001838154811061040257610401613b88565b5b90600052602060002090600f020160040160008201518160000190816104289190613ab6565b50602082015181600101908161043e9190613ab6565b5060408201518160020190816104549190613ab6565b50606082015181600301908161046a9190613ab6565b5090505050610488565b50808061048090613be6565b9150506102e0565b50505050565b8060008360405161049f9190613889565b9081526020016040518091039020600d0190816104bc9190613ab6565b506000600180549050905060005b81811015610624576000600182815481106104e8576104e7613b88565b5b90600052602060002090600f02016000018054610504906138cf565b80601f0160208091040260200160405190810160405280929190818152602001828054610530906138cf565b801561057d5780601f106105525761010080835404028352916020019161057d565b820191906000526020600020905b81548152906001019060200180831161056057829003601f168201915b50505050509050846040516020016105959190613889565b60405160208183030381529060405280519060200120816040516020016105bc9190613889565b60405160208183030381529060405280519060200120036106105783600183815481106105ec576105eb613b88565b5b90600052602060002090600f0201600d0190816106099190613ab6565b5050610624565b50808061061c90613be6565b9150506104ca565b50505050565b60606001805480602002602001604051908101604052809291908181526020016000905b82821015610e9057838290600052602060002090600f020160405180610160016040529081600082018054610682906138cf565b80601f01602080910402602001604051908101604052809291908181526020018280546106ae906138cf565b80156106fb5780601f106106d0576101008083540402835291602001916106fb565b820191906000526020600020905b8154815290600101906020018083116106de57829003601f168201915b50505050508152602001600182018054610714906138cf565b80601f0160208091040260200160405190810160405280929190818152602001828054610740906138cf565b801561078d5780601f106107625761010080835404028352916020019161078d565b820191906000526020600020905b81548152906001019060200180831161077057829003601f168201915b50505050508152602001600282016040518060400160405290816000820180546107b6906138cf565b80601f01602080910402602001604051908101604052809291908181526020018280546107e2906138cf565b801561082f5780601f106108045761010080835404028352916020019161082f565b820191906000526020600020905b81548152906001019060200180831161081257829003601f168201915b505050505081526020016001820160009054906101000a900460ff161515151581525050815260200160048201604051806080016040529081600082018054610877906138cf565b80601f01602080910402602001604051908101604052809291908181526020018280546108a3906138cf565b80156108f05780601f106108c5576101008083540402835291602001916108f0565b820191906000526020600020905b8154815290600101906020018083116108d357829003601f168201915b50505050508152602001600182018054610909906138cf565b80601f0160208091040260200160405190810160405280929190818152602001828054610935906138cf565b80156109825780601f1061095757610100808354040283529160200191610982565b820191906000526020600020905b81548152906001019060200180831161096557829003601f168201915b5050505050815260200160028201805461099b906138cf565b80601f01602080910402602001604051908101604052809291908181526020018280546109c7906138cf565b8015610a145780601f106109e957610100808354040283529160200191610a14565b820191906000526020600020905b8154815290600101906020018083116109f757829003601f168201915b50505050508152602001600382018054610a2d906138cf565b80601f0160208091040260200160405190810160405280929190818152602001828054610a59906138cf565b8015610aa65780601f10610a7b57610100808354040283529160200191610aa6565b820191906000526020600020905b815481529060010190602001808311610a8957829003601f168201915b505050505081525050815260200160088201805480602002602001604051908101604052809291908181526020016000905b82821015610b84578382906000526020600020018054610af7906138cf565b80601f0160208091040260200160405190810160405280929190818152602001828054610b23906138cf565b8015610b705780601f10610b4557610100808354040283529160200191610b70565b820191906000526020600020905b815481529060010190602001808311610b5357829003601f168201915b505050505081526020019060010190610ad8565b5050505081526020016009820160009054906101000a900460ff16151515158152602001600a82018054610bb7906138cf565b80601f0160208091040260200160405190810160405280929190818152602001828054610be3906138cf565b8015610c305780601f10610c0557610100808354040283529160200191610c30565b820191906000526020600020905b815481529060010190602001808311610c1357829003601f168201915b50505050508152602001600b82018054610c49906138cf565b80601f0160208091040260200160405190810160405280929190818152602001828054610c75906138cf565b8015610cc25780601f10610c9757610100808354040283529160200191610cc2565b820191906000526020600020905b815481529060010190602001808311610ca557829003601f168201915b50505050508152602001600c82018054610cdb906138cf565b80601f0160208091040260200160405190810160405280929190818152602001828054610d07906138cf565b8015610d545780601f10610d2957610100808354040283529160200191610d54565b820191906000526020600020905b815481529060010190602001808311610d3757829003601f168201915b50505050508152602001600d82018054610d6d906138cf565b80601f0160208091040260200160405190810160405280929190818152602001828054610d99906138cf565b8015610de65780601f10610dbb57610100808354040283529160200191610de6565b820191906000526020600020905b815481529060010190602001808311610dc957829003601f168201915b50505050508152602001600e82018054610dff906138cf565b80601f0160208091040260200160405190810160405280929190818152602001828054610e2b906138cf565b8015610e785780601f10610e4d57610100808354040283529160200191610e78565b820191906000526020600020905b815481529060010190602001808311610e5b57829003601f168201915b5050505050815250508152602001906001019061064e565b50505050905090565b80600083604051610eaa9190613889565b9081526020016040518091039020600c019081610ec79190613ab6565b506000600180549050905060005b8181101561102f57600060018281548110610ef357610ef2613b88565b5b90600052602060002090600f02016000018054610f0f906138cf565b80601f0160208091040260200160405190810160405280929190818152602001828054610f3b906138cf565b8015610f885780601f10610f5d57610100808354040283529160200191610f88565b820191906000526020600020905b815481529060010190602001808311610f6b57829003601f168201915b5050505050905084604051602001610fa09190613889565b6040516020818303038152906040528051906020012081604051602001610fc79190613889565b604051602081830303815290604052805190602001200361101b578360018381548110610ff757610ff6613b88565b5b90600052602060002090600f0201600c0190816110149190613ab6565b505061102f565b50808061102790613be6565b915050610ed5565b50505050565b600060405180610160016040528083600001518152602001836020015181526020018360400151815260200183606001518152602001836080015181526020018360a00151151581526020018360c0015181526020018360e00151815260200183610100015181526020018361012001518152602001836101400151815250905080600083600001516040516110cb9190613889565b908152602001604051809103902060008201518160000190816110ee9190613ab6565b5060208201518160010190816111049190613ab6565b5060408201518160020160008201518160000190816111239190613ab6565b5060208201518160010160006101000a81548160ff021916908315150217905550505060608201518160040160008201518160000190816111649190613ab6565b50602082015181600101908161117a9190613ab6565b5060408201518160020190816111909190613ab6565b5060608201518160030190816111a69190613ab6565b50505060808201518160080190805190602001906111c5929190612898565b5060a08201518160090160006101000a81548160ff02191690831515021790555060c082015181600a0190816111fb9190613ab6565b5060e082015181600b0190816112119190613ab6565b5061010082015181600c0190816112289190613ab6565b5061012082015181600d01908161123f9190613ab6565b5061014082015181600e0190816112569190613ab6565b5090505060018190806001815401808255809150506001900390600052602060002090600f0201600090919091909150600082015181600001908161129b9190613ab6565b5060208201518160010190816112b19190613ab6565b5060408201518160020160008201518160000190816112d09190613ab6565b5060208201518160010160006101000a81548160ff021916908315150217905550505060608201518160040160008201518160000190816113119190613ab6565b5060208201518160010190816113279190613ab6565b50604082015181600201908161133d9190613ab6565b5060608201518160030190816113539190613ab6565b5050506080820151816008019080519060200190611372929190612898565b5060a08201518160090160006101000a81548160ff02191690831515021790555060c082015181600a0190816113a89190613ab6565b5060e082015181600b0190816113be9190613ab6565b5061010082015181600c0190816113d59190613ab6565b5061012082015181600d0190816113ec9190613ab6565b5061014082015181600e0190816114039190613ab6565b50505080600001516040516114189190613889565b60405180910390207f640ccfbda3d994b691c293621a5328f2d3ab3640588474052085905f63f930b860405160405180910390a25050565b806000836040516114619190613889565b90815260200160405180910390206008019080519060200190611485929190612898565b506000600180549050905060005b818110156115f4576000600182815481106114b1576114b0613b88565b5b90600052602060002090600f020160000180546114cd906138cf565b80601f01602080910402602001604051908101604052809291908181526020018280546114f9906138cf565b80156115465780601f1061151b57610100808354040283529160200191611546565b820191906000526020600020905b81548152906001019060200180831161152957829003601f168201915b505050505090508460405160200161155e9190613889565b60405160208183030381529060405280519060200120816040516020016115859190613889565b60405160208183030381529060405280519060200120036115e05783600183815481106115b5576115b4613b88565b5b90600052602060002090600f020160080190805190602001906115d9929190612898565b50506115f4565b5080806115ec90613be6565b915050611493565b50505050565b6116026128f1565b816040516116109190613889565b60405180910390207f84a0aff50951b046c8cb32dcaef578e24f1fcde13365ca83cb3e3507c2787e6c60405160405180910390a26000826040516116549190613889565b90815260200160405180910390206040518061016001604052908160008201805461167e906138cf565b80601f01602080910402602001604051908101604052809291908181526020018280546116aa906138cf565b80156116f75780601f106116cc576101008083540402835291602001916116f7565b820191906000526020600020905b8154815290600101906020018083116116da57829003601f168201915b50505050508152602001600182018054611710906138cf565b80601f016020809104026020016040519081016040528092919081815260200182805461173c906138cf565b80156117895780601f1061175e57610100808354040283529160200191611789565b820191906000526020600020905b81548152906001019060200180831161176c57829003601f168201915b50505050508152602001600282016040518060400160405290816000820180546117b2906138cf565b80601f01602080910402602001604051908101604052809291908181526020018280546117de906138cf565b801561182b5780601f106118005761010080835404028352916020019161182b565b820191906000526020600020905b81548152906001019060200180831161180e57829003601f168201915b505050505081526020016001820160009054906101000a900460ff161515151581525050815260200160048201604051806080016040529081600082018054611873906138cf565b80601f016020809104026020016040519081016040528092919081815260200182805461189f906138cf565b80156118ec5780601f106118c1576101008083540402835291602001916118ec565b820191906000526020600020905b8154815290600101906020018083116118cf57829003601f168201915b50505050508152602001600182018054611905906138cf565b80601f0160208091040260200160405190810160405280929190818152602001828054611931906138cf565b801561197e5780601f106119535761010080835404028352916020019161197e565b820191906000526020600020905b81548152906001019060200180831161196157829003601f168201915b50505050508152602001600282018054611997906138cf565b80601f01602080910402602001604051908101604052809291908181526020018280546119c3906138cf565b8015611a105780601f106119e557610100808354040283529160200191611a10565b820191906000526020600020905b8154815290600101906020018083116119f357829003601f168201915b50505050508152602001600382018054611a29906138cf565b80601f0160208091040260200160405190810160405280929190818152602001828054611a55906138cf565b8015611aa25780601f10611a7757610100808354040283529160200191611aa2565b820191906000526020600020905b815481529060010190602001808311611a8557829003601f168201915b505050505081525050815260200160088201805480602002602001604051908101604052809291908181526020016000905b82821015611b80578382906000526020600020018054611af3906138cf565b80601f0160208091040260200160405190810160405280929190818152602001828054611b1f906138cf565b8015611b6c5780601f10611b4157610100808354040283529160200191611b6c565b820191906000526020600020905b815481529060010190602001808311611b4f57829003601f168201915b505050505081526020019060010190611ad4565b5050505081526020016009820160009054906101000a900460ff16151515158152602001600a82018054611bb3906138cf565b80601f0160208091040260200160405190810160405280929190818152602001828054611bdf906138cf565b8015611c2c5780601f10611c0157610100808354040283529160200191611c2c565b820191906000526020600020905b815481529060010190602001808311611c0f57829003601f168201915b50505050508152602001600b82018054611c45906138cf565b80601f0160208091040260200160405190810160405280929190818152602001828054611c71906138cf565b8015611cbe5780601f10611c9357610100808354040283529160200191611cbe565b820191906000526020600020905b815481529060010190602001808311611ca157829003601f168201915b50505050508152602001600c82018054611cd7906138cf565b80601f0160208091040260200160405190810160405280929190818152602001828054611d03906138cf565b8015611d505780601f10611d2557610100808354040283529160200191611d50565b820191906000526020600020905b815481529060010190602001808311611d3357829003601f168201915b50505050508152602001600d82018054611d69906138cf565b80601f0160208091040260200160405190810160405280929190818152602001828054611d95906138cf565b8015611de25780601f10611db757610100808354040283529160200191611de2565b820191906000526020600020905b815481529060010190602001808311611dc557829003601f168201915b50505050508152602001600e82018054611dfb906138cf565b80601f0160208091040260200160405190810160405280929190818152602001828054611e27906138cf565b8015611e745780601f10611e4957610100808354040283529160200191611e74565b820191906000526020600020905b815481529060010190602001808311611e5757829003601f168201915b5050505050815250509050919050565b80600083604051611e959190613889565b9081526020016040518091039020600a019081611eb29190613ab6565b506000600180549050905060005b8181101561201a57600060018281548110611ede57611edd613b88565b5b90600052602060002090600f02016000018054611efa906138cf565b80601f0160208091040260200160405190810160405280929190818152602001828054611f26906138cf565b8015611f735780601f10611f4857610100808354040283529160200191611f73565b820191906000526020600020905b815481529060010190602001808311611f5657829003601f168201915b5050505050905084604051602001611f8b9190613889565b6040516020818303038152906040528051906020012081604051602001611fb29190613889565b6040516020818303038152906040528051906020012003612006578360018381548110611fe257611fe1613b88565b5b90600052602060002090600f0201600a019081611fff9190613ab6565b505061201a565b50808061201290613be6565b915050611ec0565b50505050565b806000836040516120319190613889565b9081526020016040518091039020600b01908161204e9190613ab6565b506000600180549050905060005b818110156121b65760006001828154811061207a57612079613b88565b5b90600052602060002090600f02016000018054612096906138cf565b80601f01602080910402602001604051908101604052809291908181526020018280546120c2906138cf565b801561210f5780601f106120e45761010080835404028352916020019161210f565b820191906000526020600020905b8154815290600101906020018083116120f257829003601f168201915b50505050509050846040516020016121279190613889565b604051602081830303815290604052805190602001208160405160200161214e9190613889565b60405160208183030381529060405280519060200120036121a257836001838154811061217e5761217d613b88565b5b90600052602060002090600f0201600b01908161219b9190613ab6565b50506121b6565b5080806121ae90613be6565b91505061205c565b50505050565b806000836040516121cd9190613889565b908152602001604051809103902060020160008201518160000190816121f39190613ab6565b5060208201518160010160006101000a81548160ff0219169083151502179055509050506000600180549050905060005b818110156123aa5760006001828154811061224257612241613b88565b5b90600052602060002090600f0201600001805461225e906138cf565b80601f016020809104026020016040519081016040528092919081815260200182805461228a906138cf565b80156122d75780601f106122ac576101008083540402835291602001916122d7565b820191906000526020600020905b8154815290600101906020018083116122ba57829003601f168201915b50505050509050846040516020016122ef9190613889565b60405160208183030381529060405280519060200120816040516020016123169190613889565b604051602081830303815290604052805190602001200361239657836001838154811061234657612345613b88565b5b90600052602060002090600f0201600201600082015181600001908161236c9190613ab6565b5060208201518160010160006101000a81548160ff021916908315150217905550905050506123aa565b5080806123a290613be6565b915050612224565b50505050565b806000836040516123c19190613889565b908152602001604051809103902060010190816123de9190613ab6565b506000600180549050905060005b818110156125465760006001828154811061240a57612409613b88565b5b90600052602060002090600f02016000018054612426906138cf565b80601f0160208091040260200160405190810160405280929190818152602001828054612452906138cf565b801561249f5780601f106124745761010080835404028352916020019161249f565b820191906000526020600020905b81548152906001019060200180831161248257829003601f168201915b50505050509050846040516020016124b79190613889565b60405160208183030381529060405280519060200120816040516020016124de9190613889565b604051602081830303815290604052805190602001200361253257836001838154811061250e5761250d613b88565b5b90600052602060002090600f0201600101908161252b9190613ab6565b5050612546565b50808061253e90613be6565b9150506123ec565b50505050565b8060008360405161255d9190613889565b908152602001604051809103902060090160006101000a81548160ff0219169083151502179055506000600180549050905060005b818110156126f6576000600182815481106125b0576125af613b88565b5b90600052602060002090600f020160000180546125cc906138cf565b80601f01602080910402602001604051908101604052809291908181526020018280546125f8906138cf565b80156126455780601f1061261a57610100808354040283529160200191612645565b820191906000526020600020905b81548152906001019060200180831161262857829003601f168201915b505050505090508460405160200161265d9190613889565b60405160208183030381529060405280519060200120816040516020016126849190613889565b60405160208183030381529060405280519060200120036126e25783600183815481106126b4576126b3613b88565b5b90600052602060002090600f020160090160006101000a81548160ff021916908315150217905550506126f6565b5080806126ee90613be6565b915050612592565b50505050565b8060008360405161270d9190613889565b9081526020016040518091039020600e01908161272a9190613ab6565b506000600180549050905060005b818110156128925760006001828154811061275657612755613b88565b5b90600052602060002090600f02016000018054612772906138cf565b80601f016020809104026020016040519081016040528092919081815260200182805461279e906138cf565b80156127eb5780601f106127c0576101008083540402835291602001916127eb565b820191906000526020600020905b8154815290600101906020018083116127ce57829003601f168201915b50505050509050846040516020016128039190613889565b604051602081830303815290604052805190602001208160405160200161282a9190613889565b604051602081830303815290604052805190602001200361287e57836001838154811061285a57612859613b88565b5b90600052602060002090600f0201600e0190816128779190613ab6565b5050612892565b50808061288a90613be6565b915050612738565b50505050565b8280548282559060005260206000209081019282156128e0579160200282015b828111156128df5782518290816128cf9190613ab6565b50916020019190600101906128b8565b5b5090506128ed9190612959565b5090565b604051806101600160405280606081526020016060815260200161291361297d565b8152602001612920612999565b81526020016060815260200160001515815260200160608152602001606081526020016060815260200160608152602001606081525090565b5b80821115612979576000818161297091906129c1565b5060010161295a565b5090565b6040518060400160405280606081526020016000151581525090565b6040518060800160405280606081526020016060815260200160608152602001606081525090565b5080546129cd906138cf565b6000825580601f106129df57506129fe565b601f0160209004906000526020600020908101906129fd9190612a01565b5b50565b5b80821115612a1a576000816000905550600101612a02565b5090565b6000604051905090565b600080fd5b600080fd5b600080fd5b600080fd5b6000601f19601f8301169050919050565b7f4e487b7100000000000000000000000000000000000000000000000000000000600052604160045260246000fd5b612a8582612a3c565b810181811067ffffffffffffffff82111715612aa457612aa3612a4d565b5b80604052505050565b6000612ab7612a1e565b9050612ac38282612a7c565b919050565b600067ffffffffffffffff821115612ae357612ae2612a4d565b5b612aec82612a3c565b9050602081019050919050565b82818337600083830152505050565b6000612b1b612b1684612ac8565b612aad565b905082815260208101848484011115612b3757612b36612a37565b5b612b42848285612af9565b509392505050565b600082601f830112612b5f57612b5e612a32565b5b8135612b6f848260208601612b08565b91505092915050565b600080fd5b600080fd5b600060808284031215612b9857612b97612b78565b5b612ba26080612aad565b9050600082013567ffffffffffffffff811115612bc257612bc1612b7d565b5b612bce84828501612b4a565b600083015250602082013567ffffffffffffffff811115612bf257612bf1612b7d565b5b612bfe84828501612b4a565b602083015250604082013567ffffffffffffffff811115612c2257612c21612b7d565b5b612c2e84828501612b4a565b604083015250606082013567ffffffffffffffff811115612c5257612c51612b7d565b5b612c5e84828501612b4a565b60608301525092915050565b60008060408385031215612c8157612c80612a28565b5b600083013567ffffffffffffffff811115612c9f57612c9e612a2d565b5b612cab85828601612b4a565b925050602083013567ffffffffffffffff811115612ccc57612ccb612a2d565b5b612cd885828601612b82565b9150509250929050565b60008060408385031215612cf957612cf8612a28565b5b600083013567ffffffffffffffff811115612d1757612d16612a2d565b5b612d2385828601612b4a565b925050602083013567ffffffffffffffff811115612d4457612d43612a2d565b5b612d5085828601612b4a565b9150509250929050565b600081519050919050565b600082825260208201905092915050565b6000819050602082019050919050565b600081519050919050565b600082825260208201905092915050565b60005b83811015612dc0578082015181840152602081019050612da5565b60008484015250505050565b6000612dd782612d86565b612de18185612d91565b9350612df1818560208601612da2565b612dfa81612a3c565b840191505092915050565b60008115159050919050565b612e1a81612e05565b82525050565b60006040830160008301518482036000860152612e3d8282612dcc565b9150506020830151612e526020860182612e11565b508091505092915050565b60006080830160008301518482036000860152612e7a8282612dcc565b91505060208301518482036020860152612e948282612dcc565b91505060408301518482036040860152612eae8282612dcc565b91505060608301518482036060860152612ec88282612dcc565b9150508091505092915050565b600081519050919050565b600082825260208201905092915050565b6000819050602082019050919050565b6000612f0d8383612dcc565b905092915050565b6000602082019050919050565b6000612f2d82612ed5565b612f378185612ee0565b935083602082028501612f4985612ef1565b8060005b85811015612f855784840389528151612f668582612f01565b9450612f7183612f15565b925060208a01995050600181019050612f4d565b50829750879550505050505092915050565b6000610160830160008301518482036000860152612fb58282612dcc565b91505060208301518482036020860152612fcf8282612dcc565b91505060408301518482036040860152612fe98282612e20565b915050606083015184820360608601526130038282612e5d565b9150506080830151848203608086015261301d8282612f22565b91505060a083015161303260a0860182612e11565b5060c083015184820360c086015261304a8282612dcc565b91505060e083015184820360e08601526130648282612dcc565b9150506101008301518482036101008601526130808282612dcc565b91505061012083015184820361012086015261309c8282612dcc565b9150506101408301518482036101408601526130b88282612dcc565b9150508091505092915050565b60006130d18383612f97565b905092915050565b6000602082019050919050565b60006130f182612d5a565b6130fb8185612d65565b93508360208202850161310d85612d76565b8060005b85811015613149578484038952815161312a85826130c5565b9450613135836130d9565b925060208a01995050600181019050613111565b50829750879550505050505092915050565b6000602082019050818103600083015261317581846130e6565b905092915050565b61318681612e05565b811461319157600080fd5b50565b6000813590506131a38161317d565b92915050565b6000604082840312156131bf576131be612b78565b5b6131c96040612aad565b9050600082013567ffffffffffffffff8111156131e9576131e8612b7d565b5b6131f584828501612b4a565b600083015250602061320984828501613194565b60208301525092915050565b600067ffffffffffffffff8211156132305761322f612a4d565b5b602082029050602081019050919050565b600080fd5b600061325961325484613215565b612aad565b9050808382526020820190506020840283018581111561327c5761327b613241565b5b835b818110156132c357803567ffffffffffffffff8111156132a1576132a0612a32565b5b8086016132ae8982612b4a565b8552602085019450505060208101905061327e565b5050509392505050565b600082601f8301126132e2576132e1612a32565b5b81356132f2848260208601613246565b91505092915050565b6000610160828403121561331257613311612b78565b5b61331d610160612aad565b9050600082013567ffffffffffffffff81111561333d5761333c612b7d565b5b61334984828501612b4a565b600083015250602082013567ffffffffffffffff81111561336d5761336c612b7d565b5b61337984828501612b4a565b602083015250604082013567ffffffffffffffff81111561339d5761339c612b7d565b5b6133a9848285016131a9565b604083015250606082013567ffffffffffffffff8111156133cd576133cc612b7d565b5b6133d984828501612b82565b606083015250608082013567ffffffffffffffff8111156133fd576133fc612b7d565b5b613409848285016132cd565b60808301525060a061341d84828501613194565b60a08301525060c082013567ffffffffffffffff81111561344157613440612b7d565b5b61344d84828501612b4a565b60c08301525060e082013567ffffffffffffffff81111561347157613470612b7d565b5b61347d84828501612b4a565b60e08301525061010082013567ffffffffffffffff8111156134a2576134a1612b7d565b5b6134ae84828501612b4a565b6101008301525061012082013567ffffffffffffffff8111156134d4576134d3612b7d565b5b6134e084828501612b4a565b6101208301525061014082013567ffffffffffffffff81111561350657613505612b7d565b5b61351284828501612b4a565b6101408301525092915050565b60006020828403121561353557613534612a28565b5b600082013567ffffffffffffffff81111561355357613552612a2d565b5b61355f848285016132fb565b91505092915050565b6000806040838503121561357f5761357e612a28565b5b600083013567ffffffffffffffff81111561359d5761359c612a2d565b5b6135a985828601612b4a565b925050602083013567ffffffffffffffff8111156135ca576135c9612a2d565b5b6135d6858286016132cd565b9150509250929050565b6000602082840312156135f6576135f5612a28565b5b600082013567ffffffffffffffff81111561361457613613612a2d565b5b61362084828501612b4a565b91505092915050565b60006101608301600083015184820360008601526136478282612dcc565b915050602083015184820360208601526136618282612dcc565b9150506040830151848203604086015261367b8282612e20565b915050606083015184820360608601526136958282612e5d565b915050608083015184820360808601526136af8282612f22565b91505060a08301516136c460a0860182612e11565b5060c083015184820360c08601526136dc8282612dcc565b91505060e083015184820360e08601526136f68282612dcc565b9150506101008301518482036101008601526137128282612dcc565b91505061012083015184820361012086015261372e8282612dcc565b91505061014083015184820361014086015261374a8282612dcc565b9150508091505092915050565b600060208201905081810360008301526137718184613629565b905092915050565b600080604083850312156137905761378f612a28565b5b600083013567ffffffffffffffff8111156137ae576137ad612a2d565b5b6137ba85828601612b4a565b925050602083013567ffffffffffffffff8111156137db576137da612a2d565b5b6137e7858286016131a9565b9150509250929050565b6000806040838503121561380857613807612a28565b5b600083013567ffffffffffffffff81111561382657613825612a2d565b5b61383285828601612b4a565b925050602061384385828601613194565b9150509250929050565b600081905092915050565b600061386382612d86565b61386d818561384d565b935061387d818560208601612da2565b80840191505092915050565b60006138958284613858565b915081905092915050565b7f4e487b7100000000000000000000000000000000000000000000000000000000600052602260045260246000fd5b600060028204905060018216806138e757607f821691505b6020821081036138fa576138f96138a0565b5b50919050565b60008190508160005260206000209050919050565b60006020601f8301049050919050565b600082821b905092915050565b6000600883026139627fffffffffffffffffffffffffffffffffffffffffffffffffffffffffffffffff82613925565b61396c8683613925565b95508019841693508086168417925050509392505050565b6000819050919050565b6000819050919050565b60006139b36139ae6139a984613984565b61398e565b613984565b9050919050565b6000819050919050565b6139cd83613998565b6139e16139d9826139ba565b848454613932565b825550505050565b600090565b6139f66139e9565b613a018184846139c4565b505050565b5b81811015613a2557613a1a6000826139ee565b600181019050613a07565b5050565b601f821115613a6a57613a3b81613900565b613a4484613915565b81016020851015613a53578190505b613a67613a5f85613915565b830182613a06565b50505b505050565b600082821c905092915050565b6000613a8d60001984600802613a6f565b1980831691505092915050565b6000613aa68383613a7c565b9150826002028217905092915050565b613abf82612d86565b67ffffffffffffffff811115613ad857613ad7612a4d565b5b613ae282546138cf565b613aed828285613a29565b600060209050601f831160018114613b205760008415613b0e578287015190505b613b188582613a9a565b865550613b80565b601f198416613b2e86613900565b60005b82811015613b5657848901518255600182019150602085019450602081019050613b31565b86831015613b735784890151613b6f601f891682613a7c565b8355505b6001600288020188555050505b505050505050565b7f4e487b7100000000000000000000000000000000000000000000000000000000600052603260045260246000fd5b7f4e487b7100000000000000000000000000000000000000000000000000000000600052601160045260246000fd5b6000613bf182613984565b91507fffffffffffffffffffffffffffffffffffffffffffffffffffffffffffffffff8203613c2357613c22613bb7565b5b60018201905091905056fea26469706673582212200222b7f7f7035b540e4ba5824dd1a861d7c785608aca8985b5f7df2e323dc64064736f6c63430008110033",
  "immutableReferences": {},
  "source": "// SPDX-License-Identifier: UNLICENSED\npragma solidity >=0.8.0;\n\n/*\n1. [\"1234\", \"20,200\", [\"to be settled by company\", true], [\"Rabi\", \"Rice\", \"Water logging\", \"Summer\"], [\"url1\", \"url2\", \"url3\"], true, \"34.7\", \"Natural Disaster\", \"2 Oct\", \"1 Mar\", \"3 Dec\"]\n2. 1234,20,200,to be settled by company,true,Rabi,Rice,Water logging,Summer,url1,url2,url3,true,34.7,Natural Disaster,2 Oct,1 Mar,3 Dec\n3. 1234,0x,0x,true,0x,0x,0x,0x,0x,true,0x,0x,0x,0x,0x\n\n*/\n\ncontract InsuranceClaim{\n   \nmapping (string => individualClaim) private totalClaims;\nindividualClaim [] private claimArray;\n\nevent _setClaim(string indexed _insuranceId);\nevent _getClaim(string indexed _insuranceId);\n\nfunction setClaim( \n     individualClaim memory obj\n) public {\n    individualClaim memory newObj=individualClaim(\n         obj.insuranceId,\n         obj.payment,\n         obj.currStatus,\n         obj.currCrop,\n         obj.imageURL,\n         obj.isActive,\n         obj.lossPercent,\n         obj.lossType,\n         obj.dateOfLoss,\n         obj.createdOn, \n         obj.updatedOn);\n\n    totalClaims[obj.insuranceId]=newObj;\n    claimArray.push(newObj);\n   emit _setClaim(newObj.insuranceId); \n}\n\nfunction getClaim(string memory _insuranceId) public returns (individualClaim memory){\n   emit _getClaim(_insuranceId);\n   return totalClaims[_insuranceId];\n}\n\n\nfunction getTotalClaim() public view returns (individualClaim [] memory){\n   return claimArray;\n}\n\n\n// ---------------------- UPDATE FUNCTIONS ----------------------\n\n\nfunction updatePayment(string memory insuranceId, string memory payment) public {\n   \n   totalClaims[insuranceId].payment=payment;\n\n   uint n = claimArray.length;\n\nfor(uint i=0; i<n;i++){\n   string memory currId=claimArray[i].insuranceId;\n  \n  if (keccak256(abi.encodePacked(currId)) == keccak256(abi.encodePacked(insuranceId))) {\n    claimArray[i].payment=payment;\n    break;\n   }\n} }\n\n\nfunction updateStatus(string memory insuranceId, status memory currStatus) public {\n   totalClaims[insuranceId].currStatus=currStatus;\n\n   uint n = claimArray.length;\n\nfor(uint i=0; i<n;i++){\n   string memory currId=claimArray[i].insuranceId;\n \n  if (keccak256(abi.encodePacked(currId)) == keccak256(abi.encodePacked(insuranceId))) {\n    claimArray[i].currStatus=currStatus;\n    break;\n   }\n}}\n\n\n\nfunction updateCurrCrop(string memory insuranceId, cropDetails memory currCrop) public {\n   \n   totalClaims[insuranceId].currCrop=currCrop;\n   uint n = claimArray.length;\n\nfor(uint i=0; i<n;i++){\n   string memory currId=claimArray[i].insuranceId;\n \n  if (keccak256(abi.encodePacked(currId)) == keccak256(abi.encodePacked(insuranceId))) {\n    claimArray[i].currCrop=currCrop;\n    break;\n   }\n}}\n\n\nfunction updateImageURL(string memory insuranceId, string[] memory imageURL) public {\n   \n   totalClaims[insuranceId].imageURL=imageURL;\n   uint n = claimArray.length;\n\nfor(uint i=0; i<n;i++){\n   string memory currId=claimArray[i].insuranceId;\n \n  if (keccak256(abi.encodePacked(currId)) == keccak256(abi.encodePacked(insuranceId))) {\n    claimArray[i].imageURL=imageURL;\n    break;\n   } \n} }\n\n\nfunction updateisActive(string memory insuranceId, bool isActive) public {\n   \n   totalClaims[insuranceId].isActive=isActive;\n   uint n = claimArray.length;\n\nfor(uint i=0; i<n;i++){\n   string memory currId=claimArray[i].insuranceId;\n \n  if (keccak256(abi.encodePacked(currId)) == keccak256(abi.encodePacked(insuranceId))) {\n    claimArray[i].isActive=isActive;\n    break;\n   } \n} }\n\n\nfunction updatelossPercent(string memory insuranceId, string memory lossPercent) public {\n   \n   totalClaims[insuranceId].lossPercent=lossPercent;\n   uint n = claimArray.length;\n\nfor(uint i=0; i<n;i++){\n   string memory currId=claimArray[i].insuranceId;\n \n  if (keccak256(abi.encodePacked(currId)) == keccak256(abi.encodePacked(insuranceId))) {\n    claimArray[i].lossPercent=lossPercent;\n    break;\n   } \n} }\n\n\nfunction updatelossType(string memory insuranceId, string memory lossType) public {\n   \n   totalClaims[insuranceId].lossType=lossType;\n   uint n = claimArray.length;\n\nfor(uint i=0; i<n;i++){\n   string memory currId=claimArray[i].insuranceId;\n \n  if (keccak256(abi.encodePacked(currId)) == keccak256(abi.encodePacked(insuranceId))) {\n    claimArray[i].lossType=lossType;\n    break;\n   } \n} }\n\n\nfunction updatedateOfLoss(string memory insuranceId, string memory dateOfLoss) public {\n   \n   totalClaims[insuranceId].dateOfLoss=dateOfLoss;\n   uint n = claimArray.length;\n\nfor(uint i=0; i<n;i++){\n   string memory currId=claimArray[i].insuranceId;\n \n  if (keccak256(abi.encodePacked(currId)) == keccak256(abi.encodePacked(insuranceId))) {\n    claimArray[i].dateOfLoss=dateOfLoss;\n    break;\n   } \n} }\n\nfunction updatecreatedOn(string memory insuranceId, string memory createdOn) public {\n   \n   totalClaims[insuranceId].createdOn=createdOn;\n   uint n = claimArray.length;\n\nfor(uint i=0; i<n;i++){\n   string memory currId=claimArray[i].insuranceId;\n \n  if (keccak256(abi.encodePacked(currId)) == keccak256(abi.encodePacked(insuranceId))) {\n    claimArray[i].createdOn=createdOn;\n    break;\n   } \n} }\n\n\nfunction updateupdatedOn(string memory insuranceId, string memory updatedOn) public {\n   \n   totalClaims[insuranceId].updatedOn=updatedOn;\n   uint n = claimArray.length;\n\nfor(uint i=0; i<n;i++){\n   string memory currId=claimArray[i].insuranceId;\n \n  if (keccak256(abi.encodePacked(currId)) == keccak256(abi.encodePacked(insuranceId))) {\n    claimArray[i].updatedOn=updatedOn;\n    break;\n   } \n} }\n\n\n\n\n//   ----------------- STRUCTS ----------------------\n\n   struct individualClaim{\n  \n   string insuranceId;\n   string payment;\n   status currStatus;   \n   cropDetails currCrop;\n   string [] imageURL;\n   bool isActive;\n   string lossPercent; \n   string lossType;\n   string dateOfLoss;\n   string createdOn;\n   string updatedOn;\n\n   }\n\n   struct status{\n      string stage_name;\n      bool passed;\n   }\n  \n  struct cropDetails{\n      string cropType;\n      string cropName;\n      string irrigationMethod;\n      string season;\n  }\n\n}",
  "sourcePath": "/Users/sachin/Desktop/hackathon/Ekaci/blockchain/contracts/InsuranceClaim.sol",
  "compiler": {
    "name": "solc",
    "version": "0.8.17+commit.8df45f5f.Emscripten.clang"
  },
  "schemaVersion": "3.4.11",
  "updatedAt": "2022-11-30T08:17:39.338Z",
  "networkType": "ethereum",
  "devdoc": {
    "kind": "dev",
    "methods": {},
    "version": 1
  },
  "userdoc": {
    "kind": "user",
    "methods": {},
    "version": 1
  }
}