{
  "contractName": "InsuranceClaim",
  "abi": [
    {
      "anonymous": false,
      "inputs": [
        {
          "indexed": true,
          "internalType": "string",
          "name": "_insuranceId",
          "type": "string"
        }
      ],
      "name": "_getClaim",
      "type": "event"
    },
    {
      "anonymous": false,
      "inputs": [
        {
          "indexed": true,
          "internalType": "string",
          "name": "_insuranceId",
          "type": "string"
        }
      ],
      "name": "_setClaim",
      "type": "event"
    },
    {
      "inputs": [
        {
          "components": [
            {
              "internalType": "string",
              "name": "insuranceId",
              "type": "string"
            },
            {
              "internalType": "string",
              "name": "payment",
              "type": "string"
            },
            {
              "components": [
                {
                  "internalType": "string",
                  "name": "stage_name",
                  "type": "string"
                },
                {
                  "internalType": "bool",
                  "name": "passed",
                  "type": "bool"
                }
              ],
              "internalType": "struct InsuranceClaim.status",
              "name": "arr",
              "type": "tuple"
            },
            {
              "components": [
                {
                  "internalType": "string",
                  "name": "cropType",
                  "type": "string"
                },
                {
                  "internalType": "string",
                  "name": "cropName",
                  "type": "string"
                },
                {
                  "internalType": "string",
                  "name": "irrigationMethod",
                  "type": "string"
                },
                {
                  "internalType": "string",
                  "name": "season",
                  "type": "string"
                }
              ],
              "internalType": "struct InsuranceClaim.cropDetails",
              "name": "currCrop",
              "type": "tuple"
            },
            {
              "internalType": "string[]",
              "name": "imageURL",
              "type": "string[]"
            },
            {
              "internalType": "bool",
              "name": "isActive",
              "type": "bool"
            },
            {
              "internalType": "string",
              "name": "lossPercent",
              "type": "string"
            },
            {
              "internalType": "string",
              "name": "loss_type",
              "type": "string"
            },
            {
              "internalType": "string",
              "name": "dateOfLoss",
              "type": "string"
            },
            {
              "internalType": "string",
              "name": "createdOn",
              "type": "string"
            },
            {
              "internalType": "string",
              "name": "updatedOn",
              "type": "string"
            }
          ],
          "internalType": "struct InsuranceClaim.individualClaim",
          "name": "obj",
          "type": "tuple"
        }
      ],
      "name": "setClaim",
      "outputs": [],
      "stateMutability": "nonpayable",
      "type": "function"
    },
    {
      "inputs": [
        {
          "internalType": "string",
          "name": "_insuranceId",
          "type": "string"
        }
      ],
      "name": "getClaim",
      "outputs": [
        {
          "components": [
            {
              "internalType": "string",
              "name": "insuranceId",
              "type": "string"
            },
            {
              "internalType": "string",
              "name": "payment",
              "type": "string"
            },
            {
              "components": [
                {
                  "internalType": "string",
                  "name": "stage_name",
                  "type": "string"
                },
                {
                  "internalType": "bool",
                  "name": "passed",
                  "type": "bool"
                }
              ],
              "internalType": "struct InsuranceClaim.status",
              "name": "arr",
              "type": "tuple"
            },
            {
              "components": [
                {
                  "internalType": "string",
                  "name": "cropType",
                  "type": "string"
                },
                {
                  "internalType": "string",
                  "name": "cropName",
                  "type": "string"
                },
                {
                  "internalType": "string",
                  "name": "irrigationMethod",
                  "type": "string"
                },
                {
                  "internalType": "string",
                  "name": "season",
                  "type": "string"
                }
              ],
              "internalType": "struct InsuranceClaim.cropDetails",
              "name": "currCrop",
              "type": "tuple"
            },
            {
              "internalType": "string[]",
              "name": "imageURL",
              "type": "string[]"
            },
            {
              "internalType": "bool",
              "name": "isActive",
              "type": "bool"
            },
            {
              "internalType": "string",
              "name": "lossPercent",
              "type": "string"
            },
            {
              "internalType": "string",
              "name": "loss_type",
              "type": "string"
            },
            {
              "internalType": "string",
              "name": "dateOfLoss",
              "type": "string"
            },
            {
              "internalType": "string",
              "name": "createdOn",
              "type": "string"
            },
            {
              "internalType": "string",
              "name": "updatedOn",
              "type": "string"
            }
          ],
          "internalType": "struct InsuranceClaim.individualClaim",
          "name": "",
          "type": "tuple"
        }
      ],
      "stateMutability": "nonpayable",
      "type": "function"
    }
  ],
  "bytecode": "0x608060405234801561001057600080fd5b50611a58806100206000396000f3fe608060405234801561001057600080fd5b50600436106100365760003560e01c8063262b396e1461003b5780632bb8154614610057575b600080fd5b61005560048036038101906100509190611300565b610087565b005b610071600480360381019061006c9190611349565b6102f6565b60405161007e91906116c5565b60405180910390f35b600060405180610160016040528083600001518152602001836020015181526020018360400151815260200183606001518152602001836080015181526020018360a00151151581526020018360c0015181526020018360e001518152602001836101000151815260200183610120015181526020018361014001518152509050806000836000015160405161011d9190611723565b908152602001604051809103902060008201518160000190816101409190611950565b5060208201518160010190816101569190611950565b5060408201518160020160008201518160000190816101759190611950565b5060208201518160010160006101000a81548160ff021916908315150217905550505060608201518160040160008201518160000190816101b69190611950565b5060208201518160010190816101cc9190611950565b5060408201518160020190816101e29190611950565b5060608201518160030190816101f89190611950565b5050506080820151816008019080519060200190610217929190610b80565b5060a08201518160090160006101000a81548160ff02191690831515021790555060c082015181600a01908161024d9190611950565b5060e082015181600b0190816102639190611950565b5061010082015181600c01908161027a9190611950565b5061012082015181600d0190816102919190611950565b5061014082015181600e0190816102a89190611950565b5090505080600001516040516102be9190611723565b60405180910390207f640ccfbda3d994b691c293621a5328f2d3ab3640588474052085905f63f930b860405160405180910390a25050565b6102fe610bd9565b8160405161030c9190611723565b60405180910390207f84a0aff50951b046c8cb32dcaef578e24f1fcde13365ca83cb3e3507c2787e6c60405160405180910390a26000826040516103509190611723565b90815260200160405180910390206040518061016001604052908160008201805461037a90611769565b80601f01602080910402602001604051908101604052809291908181526020018280546103a690611769565b80156103f35780601f106103c8576101008083540402835291602001916103f3565b820191906000526020600020905b8154815290600101906020018083116103d657829003601f168201915b5050505050815260200160018201805461040c90611769565b80601f016020809104026020016040519081016040528092919081815260200182805461043890611769565b80156104855780601f1061045a57610100808354040283529160200191610485565b820191906000526020600020905b81548152906001019060200180831161046857829003601f168201915b50505050508152602001600282016040518060400160405290816000820180546104ae90611769565b80601f01602080910402602001604051908101604052809291908181526020018280546104da90611769565b80156105275780601f106104fc57610100808354040283529160200191610527565b820191906000526020600020905b81548152906001019060200180831161050a57829003601f168201915b505050505081526020016001820160009054906101000a900460ff16151515158152505081526020016004820160405180608001604052908160008201805461056f90611769565b80601f016020809104026020016040519081016040528092919081815260200182805461059b90611769565b80156105e85780601f106105bd576101008083540402835291602001916105e8565b820191906000526020600020905b8154815290600101906020018083116105cb57829003601f168201915b5050505050815260200160018201805461060190611769565b80601f016020809104026020016040519081016040528092919081815260200182805461062d90611769565b801561067a5780601f1061064f5761010080835404028352916020019161067a565b820191906000526020600020905b81548152906001019060200180831161065d57829003601f168201915b5050505050815260200160028201805461069390611769565b80601f01602080910402602001604051908101604052809291908181526020018280546106bf90611769565b801561070c5780601f106106e15761010080835404028352916020019161070c565b820191906000526020600020905b8154815290600101906020018083116106ef57829003601f168201915b5050505050815260200160038201805461072590611769565b80601f016020809104026020016040519081016040528092919081815260200182805461075190611769565b801561079e5780601f106107735761010080835404028352916020019161079e565b820191906000526020600020905b81548152906001019060200180831161078157829003601f168201915b505050505081525050815260200160088201805480602002602001604051908101604052809291908181526020016000905b8282101561087c5783829060005260206000200180546107ef90611769565b80601f016020809104026020016040519081016040528092919081815260200182805461081b90611769565b80156108685780601f1061083d57610100808354040283529160200191610868565b820191906000526020600020905b81548152906001019060200180831161084b57829003601f168201915b5050505050815260200190600101906107d0565b5050505081526020016009820160009054906101000a900460ff16151515158152602001600a820180546108af90611769565b80601f01602080910402602001604051908101604052809291908181526020018280546108db90611769565b80156109285780601f106108fd57610100808354040283529160200191610928565b820191906000526020600020905b81548152906001019060200180831161090b57829003601f168201915b50505050508152602001600b8201805461094190611769565b80601f016020809104026020016040519081016040528092919081815260200182805461096d90611769565b80156109ba5780601f1061098f576101008083540402835291602001916109ba565b820191906000526020600020905b81548152906001019060200180831161099d57829003601f168201915b50505050508152602001600c820180546109d390611769565b80601f01602080910402602001604051908101604052809291908181526020018280546109ff90611769565b8015610a4c5780601f10610a2157610100808354040283529160200191610a4c565b820191906000526020600020905b815481529060010190602001808311610a2f57829003601f168201915b50505050508152602001600d82018054610a6590611769565b80601f0160208091040260200160405190810160405280929190818152602001828054610a9190611769565b8015610ade5780601f10610ab357610100808354040283529160200191610ade565b820191906000526020600020905b815481529060010190602001808311610ac157829003601f168201915b50505050508152602001600e82018054610af790611769565b80601f0160208091040260200160405190810160405280929190818152602001828054610b2390611769565b8015610b705780601f10610b4557610100808354040283529160200191610b70565b820191906000526020600020905b815481529060010190602001808311610b5357829003601f168201915b5050505050815250509050919050565b828054828255906000526020600020908101928215610bc8579160200282015b82811115610bc7578251829081610bb79190611950565b5091602001919060010190610ba0565b5b509050610bd59190610c41565b5090565b6040518061016001604052806060815260200160608152602001610bfb610c65565b8152602001610c08610c81565b81526020016060815260200160001515815260200160608152602001606081526020016060815260200160608152602001606081525090565b5b80821115610c615760008181610c589190610ca9565b50600101610c42565b5090565b6040518060400160405280606081526020016000151581525090565b6040518060800160405280606081526020016060815260200160608152602001606081525090565b508054610cb590611769565b6000825580601f10610cc75750610ce6565b601f016020900490600052602060002090810190610ce59190610ce9565b5b50565b5b80821115610d02576000816000905550600101610cea565b5090565b6000604051905090565b600080fd5b600080fd5b600080fd5b6000601f19601f8301169050919050565b7f4e487b7100000000000000000000000000000000000000000000000000000000600052604160045260246000fd5b610d6882610d1f565b810181811067ffffffffffffffff82111715610d8757610d86610d30565b5b80604052505050565b6000610d9a610d06565b9050610da68282610d5f565b919050565b600080fd5b600080fd5b600080fd5b600067ffffffffffffffff821115610dd557610dd4610d30565b5b610dde82610d1f565b9050602081019050919050565b82818337600083830152505050565b6000610e0d610e0884610dba565b610d90565b905082815260208101848484011115610e2957610e28610db5565b5b610e34848285610deb565b509392505050565b600082601f830112610e5157610e50610db0565b5b8135610e61848260208601610dfa565b91505092915050565b60008115159050919050565b610e7f81610e6a565b8114610e8a57600080fd5b50565b600081359050610e9c81610e76565b92915050565b600060408284031215610eb857610eb7610d1a565b5b610ec26040610d90565b9050600082013567ffffffffffffffff811115610ee257610ee1610dab565b5b610eee84828501610e3c565b6000830152506020610f0284828501610e8d565b60208301525092915050565b600060808284031215610f2457610f23610d1a565b5b610f2e6080610d90565b9050600082013567ffffffffffffffff811115610f4e57610f4d610dab565b5b610f5a84828501610e3c565b600083015250602082013567ffffffffffffffff811115610f7e57610f7d610dab565b5b610f8a84828501610e3c565b602083015250604082013567ffffffffffffffff811115610fae57610fad610dab565b5b610fba84828501610e3c565b604083015250606082013567ffffffffffffffff811115610fde57610fdd610dab565b5b610fea84828501610e3c565b60608301525092915050565b600067ffffffffffffffff82111561101157611010610d30565b5b602082029050602081019050919050565b600080fd5b600061103a61103584610ff6565b610d90565b9050808382526020820190506020840283018581111561105d5761105c611022565b5b835b818110156110a457803567ffffffffffffffff81111561108257611081610db0565b5b80860161108f8982610e3c565b8552602085019450505060208101905061105f565b5050509392505050565b600082601f8301126110c3576110c2610db0565b5b81356110d3848260208601611027565b91505092915050565b600061016082840312156110f3576110f2610d1a565b5b6110fe610160610d90565b9050600082013567ffffffffffffffff81111561111e5761111d610dab565b5b61112a84828501610e3c565b600083015250602082013567ffffffffffffffff81111561114e5761114d610dab565b5b61115a84828501610e3c565b602083015250604082013567ffffffffffffffff81111561117e5761117d610dab565b5b61118a84828501610ea2565b604083015250606082013567ffffffffffffffff8111156111ae576111ad610dab565b5b6111ba84828501610f0e565b606083015250608082013567ffffffffffffffff8111156111de576111dd610dab565b5b6111ea848285016110ae565b60808301525060a06111fe84828501610e8d565b60a08301525060c082013567ffffffffffffffff81111561122257611221610dab565b5b61122e84828501610e3c565b60c08301525060e082013567ffffffffffffffff81111561125257611251610dab565b5b61125e84828501610e3c565b60e08301525061010082013567ffffffffffffffff81111561128357611282610dab565b5b61128f84828501610e3c565b6101008301525061012082013567ffffffffffffffff8111156112b5576112b4610dab565b5b6112c184828501610e3c565b6101208301525061014082013567ffffffffffffffff8111156112e7576112e6610dab565b5b6112f384828501610e3c565b6101408301525092915050565b60006020828403121561131657611315610d10565b5b600082013567ffffffffffffffff81111561133457611333610d15565b5b611340848285016110dc565b91505092915050565b60006020828403121561135f5761135e610d10565b5b600082013567ffffffffffffffff81111561137d5761137c610d15565b5b61138984828501610e3c565b91505092915050565b600081519050919050565b600082825260208201905092915050565b60005b838110156113cc5780820151818401526020810190506113b1565b60008484015250505050565b60006113e382611392565b6113ed818561139d565b93506113fd8185602086016113ae565b61140681610d1f565b840191505092915050565b61141a81610e6a565b82525050565b6000604083016000830151848203600086015261143d82826113d8565b91505060208301516114526020860182611411565b508091505092915050565b6000608083016000830151848203600086015261147a82826113d8565b9150506020830151848203602086015261149482826113d8565b915050604083015184820360408601526114ae82826113d8565b915050606083015184820360608601526114c882826113d8565b9150508091505092915050565b600081519050919050565b600082825260208201905092915050565b6000819050602082019050919050565b600061150d83836113d8565b905092915050565b6000602082019050919050565b600061152d826114d5565b61153781856114e0565b935083602082028501611549856114f1565b8060005b8581101561158557848403895281516115668582611501565b945061157183611515565b925060208a0199505060018101905061154d565b50829750879550505050505092915050565b60006101608301600083015184820360008601526115b582826113d8565b915050602083015184820360208601526115cf82826113d8565b915050604083015184820360408601526115e98282611420565b91505060608301518482036060860152611603828261145d565b9150506080830151848203608086015261161d8282611522565b91505060a083015161163260a0860182611411565b5060c083015184820360c086015261164a82826113d8565b91505060e083015184820360e086015261166482826113d8565b91505061010083015184820361010086015261168082826113d8565b91505061012083015184820361012086015261169c82826113d8565b9150506101408301518482036101408601526116b882826113d8565b9150508091505092915050565b600060208201905081810360008301526116df8184611597565b905092915050565b600081905092915050565b60006116fd82611392565b61170781856116e7565b93506117178185602086016113ae565b80840191505092915050565b600061172f82846116f2565b915081905092915050565b7f4e487b7100000000000000000000000000000000000000000000000000000000600052602260045260246000fd5b6000600282049050600182168061178157607f821691505b6020821081036117945761179361173a565b5b50919050565b60008190508160005260206000209050919050565b60006020601f8301049050919050565b600082821b905092915050565b6000600883026117fc7fffffffffffffffffffffffffffffffffffffffffffffffffffffffffffffffff826117bf565b61180686836117bf565b95508019841693508086168417925050509392505050565b6000819050919050565b6000819050919050565b600061184d6118486118438461181e565b611828565b61181e565b9050919050565b6000819050919050565b61186783611832565b61187b61187382611854565b8484546117cc565b825550505050565b600090565b611890611883565b61189b81848461185e565b505050565b5b818110156118bf576118b4600082611888565b6001810190506118a1565b5050565b601f821115611904576118d58161179a565b6118de846117af565b810160208510156118ed578190505b6119016118f9856117af565b8301826118a0565b50505b505050565b600082821c905092915050565b600061192760001984600802611909565b1980831691505092915050565b60006119408383611916565b9150826002028217905092915050565b61195982611392565b67ffffffffffffffff81111561197257611971610d30565b5b61197c8254611769565b6119878282856118c3565b600060209050601f8311600181146119ba57600084156119a8578287015190505b6119b28582611934565b865550611a1a565b601f1984166119c88661179a565b60005b828110156119f0578489015182556001820191506020850194506020810190506119cb565b86831015611a0d5784890151611a09601f891682611916565b8355505b6001600288020188555050505b50505050505056fea264697066735822122004e952f5b51d400220cda987ff2dbe79e1ada67156880a6d69921a4fcd8958a164736f6c63430008110033",
  "immutableReferences": {},
  "source": "/*\n\npragma solidity >=0.8.0;\n // [\"1234\", \"20,200\", [\"to be settled by company\", true], [\"Rabi\", \"Rice\", \"Water logging\", \"Summer\"], [\"url1\", \"url2\", \"url3\"], true, \"34.7\", \"Natural Disaster\", \"2 Oct\", \"1 Mar\", \"3 Dec\"]\n\n\n// Deployed to : 0xd75fC24276815fdB462700766c513d6ECaA97634\n\ncontract InsuranceClaim{\n   \n   mapping(address => bool) isAdmin;\n constructor(){\n        isAdmin[msg.sender] = true;\n}\n\nmapping (string => individualClaim) private totalClaims;\nevent _setClaim(string indexed _insuranceId);\nevent _getClaim(string indexed _insuranceId);\n\n\nfunction setClaim( \n     individualClaim memory obj\n) public {\n    individualClaim memory newObj=individualClaim(obj.insuranceId, obj.payment,obj.arr,obj.currCrop ,obj.imageURL,obj.isActive,obj.lossData, obj.dates);\n    totalClaims[obj.insuranceId]=newObj;\n   emit _setClaim(newObj.insuranceId); \n}\n   // struct individualClaim{\n   // string insuranceId;\n   // string payment;\n   // status arr;   // status[] arr is creating issues\n   // cropDetails currCrop;\n   // string [] imageURL;\n   // bool isActive;\n   // string lossPercent; // double/float is not there in solidity \n   // string loss_type;\n   // string dateOfLoss;\n   // string createdOn;\n   // string updatedOn;\n\n   // }\n\n  struct individualClaim{\n   string insuranceId;\n   string payment;\n   string arr;   // status[] arr is creating issues\n   string currCrop;\n   string imageURL;\n   bool isActive;\n   string lossData;\n   string dates;\n   }\n\n   struct status{\n      string stage_name;\n      bool passed;\n   }\n  \n  struct cropDetails{\n      string cropType;\n      string cropName;\n      string irrigationMethod;\n      string season;\n  }\n\n}\n*/\n\n\n\n// SPDX-License-Identifier: UNLICENSED\npragma solidity >=0.8.0;\n // [\"1234\", \"20,200\", [\"to be settled by company\", true], [\"Rabi\", \"Rice\", \"Water logging\", \"Summer\"], [\"url1\", \"url2\", \"url3\"], true, \"34.7\", \"Natural Disaster\", \"2 Oct\", \"1 Mar\", \"3 Dec\"]\n\n// Deployed To: 0xe683Bf26C6f5B6577F01e059317be6eeC08C5292\n\ncontract InsuranceClaim{\n   \nmapping (string => individualClaim) private totalClaims;\nevent _setClaim(string indexed _insuranceId);\nevent _getClaim(string indexed _insuranceId);\n\nfunction setClaim( \n     individualClaim memory obj\n) public {\n    individualClaim memory newObj=individualClaim(\n         obj.insuranceId,\n         obj.payment,\n         obj.arr,\n         obj.currCrop,\n         obj.imageURL,\n         obj.isActive,\n         obj.lossPercent,\n         obj.loss_type,\n         obj.dateOfLoss,\n         obj.createdOn, \n         obj.updatedOn);\n\n    totalClaims[obj.insuranceId]=newObj;\n   emit _setClaim(newObj.insuranceId); \n}\n\nfunction getClaim(string memory _insuranceId) public returns (individualClaim memory){\n   emit _getClaim(_insuranceId);\n   return totalClaims[_insuranceId];\n}\n\n   struct individualClaim{\n   string insuranceId;\n   string payment;\n   status arr;   \n   cropDetails currCrop;\n   string [] imageURL;\n   bool isActive;\n   string lossPercent; \n   string loss_type;\n   string dateOfLoss;\n   string createdOn;\n   string updatedOn;\n\n   }\n\n   struct status{\n      string stage_name;\n      bool passed;\n   }\n  \n  struct cropDetails{\n      string cropType;\n      string cropName;\n      string irrigationMethod;\n      string season;\n  }\n\n\n\n\n\n\n}\n\n\n\n",
  "sourcePath": "/Users/sachin/Desktop/hackathon/Ekaci/blockchain/contracts/InsuranceClaim.sol",
  "compiler": {
    "name": "solc",
    "version": "0.8.17+commit.8df45f5f.Emscripten.clang"
  },
  "schemaVersion": "3.4.11",
  "updatedAt": "2022-11-30T05:45:03.071Z",
  "devdoc": {
    "kind": "dev",
    "methods": {},
    "version": 1
  },
  "userdoc": {
    "kind": "user",
    "methods": {},
    "version": 1
  }
}